{
  "_format": "hh3-artifact-1",
  "contractName": "CampusCredits",
  "sourceName": "contracts/CampusCredits.sol",
  "abi": [
    {
      "inputs": [
        {
          "internalType": "address",
          "name": "_admin",
          "type": "address"
        }
      ],
      "stateMutability": "nonpayable",
      "type": "constructor"
    },
    {
      "anonymous": false,
      "inputs": [
        {
          "indexed": true,
          "internalType": "address",
          "name": "to",
          "type": "address"
        },
        {
          "indexed": false,
          "internalType": "uint256",
          "name": "amount",
          "type": "uint256"
        },
        {
          "indexed": false,
          "internalType": "string",
          "name": "reason",
          "type": "string"
        },
        {
          "indexed": false,
          "internalType": "uint256",
          "name": "timestamp",
          "type": "uint256"
        }
      ],
      "name": "CreditsMinted",
      "type": "event"
    },
    {
      "inputs": [],
      "name": "admin",
      "outputs": [
        {
          "internalType": "address",
          "name": "",
          "type": "address"
        }
      ],
      "stateMutability": "view",
      "type": "function"
    },
    {
      "inputs": [
        {
          "internalType": "address",
          "name": "",
          "type": "address"
        }
      ],
      "name": "balanceOf",
      "outputs": [
        {
          "internalType": "uint256",
          "name": "",
          "type": "uint256"
        }
      ],
      "stateMutability": "view",
      "type": "function"
    },
    {
      "inputs": [
        {
          "internalType": "address",
          "name": "to",
          "type": "address"
        },
        {
          "internalType": "uint256",
          "name": "amount",
          "type": "uint256"
        },
        {
          "internalType": "string",
          "name": "reason",
          "type": "string"
        }
      ],
      "name": "mintCredits",
      "outputs": [],
      "stateMutability": "nonpayable",
      "type": "function"
    }
  ],
  "bytecode": "0x608060405234801561001057600080fd5b5060405161040338038061040383398101604081905261002f91610054565b600080546001600160a01b0319166001600160a01b0392909216919091179055610084565b60006020828403121561006657600080fd5b81516001600160a01b038116811461007d57600080fd5b9392505050565b610370806100936000396000f3fe608060405234801561001057600080fd5b50600436106100415760003560e01c80633a5a40371461004657806370a082311461005b578063f851a4401461008e575b600080fd5b61005961005436600461022a565b6100b9565b005b61007b6100693660046102b1565b60016020526000908152604090205481565b6040519081526020015b60405180910390f35b6000546100a1906001600160a01b031681565b6040516001600160a01b039091168152602001610085565b6000546001600160a01b031633146101055760405162461bcd60e51b815260206004820152600a60248201526927b7363c9030b236b4b760b11b60448201526064015b60405180910390fd5b6001600160a01b03841661014d5760405162461bcd60e51b815260206004820152600f60248201526e496e76616c6964206164647265737360881b60448201526064016100fc565b600083116101925760405162461bcd60e51b81526020600482015260126024820152710416d6f756e74206d757374206265203e20360741b60448201526064016100fc565b6001600160a01b038416600090815260016020526040812080548592906101ba9084906102d3565b92505081905550836001600160a01b03167f43b6812a5a7cedd959bb4f0ae6b30586f4a37e0900359297aab3b02fe2bcb2a88484844260405161020094939291906102fa565b60405180910390a250505050565b80356001600160a01b038116811461022557600080fd5b919050565b6000806000806060858703121561024057600080fd5b6102498561020e565b935060208501359250604085013567ffffffffffffffff8082111561026d57600080fd5b818701915087601f83011261028157600080fd5b81358181111561029057600080fd5b8860208285010111156102a257600080fd5b95989497505060200194505050565b6000602082840312156102c357600080fd5b6102cc8261020e565b9392505050565b808201808211156102f457634e487b7160e01b600052601160045260246000fd5b92915050565b848152606060208201528260608201528284608083013760006080848301015260006080601f19601f86011683010190508260408301529594505050505056fea2646970667358221220fc1496f39037f44cc501d4484c464e828fa2cac13697d7b69762d43d26f6b5a964736f6c63430008120033",
  "linkReferences": {},
  "deployedLinkReferences": {},
  "immutableReferences": {},
  "inputSourceName": "project/contracts/CampusCredits.sol",
  "buildInfoId": "solc-0_8_18-d88f9559171af6fcd066f16348f0c148a7a26ccc"
}